:1005870057656C636F6D6520746F20757365210AFD
:100597000057656C636F6D6520746F2075736521F7
:1005A700004552524F520A004552524F52200020E6
:0605B700670A0020670046
:10064B00041100000000040900000000040D00006C
:07065B000000010800C100CE
:100280001206687BFF7A0579871205BD1206807F0A
:10029000801206987BFF7A0579981205E57FB87E73
:1002A0000B12060B1206C27FB87E0B12060B12064B
:1002B000C21206C2C2AF120485D2AF3000197BFF52
:1002C0007A0579A81205BD7FC01206987BFF7A05D2
:1002D00079AF1205E580DDE47BE87A03F9F8AF1029
:1002E000AE0FAD0EAC0D120502EF2430FF1206CE9C
:1002F000E47BE87A03F9F8AF10AE0FAD0EAC0D1247
:100300000502AC00AD01AE02AF03E47B64FAF9F87C
:10031000120502EF2430FF1206CEE47B64FAF9F8EE
:10032000AF10AE0FAD0EAC0D120502AC00AD01AEBC
:1003300002AF03E47B0AFAF9F8120502EF2430FF5A
:100340001206CEE47B0AFAF9F8AF10AE0FAD0EAC90
:100350000D120502EB2430FF1206CE7BFF7A0579E1
:10036000B61205BD7FC0120698E47BE87A03F9F85F
:10037000AF10AE0FAD0EAC0D120502EF2430FF1220
:1003800006ADE47BE87A03F9F8AF10AE0FAD0EAC22
:100390000D120502AC00AD01AE02AF03E47B64FABE
:1003A000F9F8120502EF2430FF1206ADE47B64FA7F
:1003B000F9F8AF10AE0FAD0EAC0D120502AC00ADEA
:1003C00001AE02AF03E47B0AFAF9F8120502EF244A
:1003D00030FF1206ADE47B0AFAF9F8AF10AE0FADAC
:1003E0000EAC0D120502EB2430FF1206AD7BFF7A36
:0903F0000579BA1205E50202B418
:100485001205468F108E0F8D0E8C0DC3E510950C41
:10049500F510E50F950BF50FE50E950AF50EE50D33
:1004A5009509F50DE4FFFEFDFCAB10AA0FA90EA8FA
:1004B5000DD3120189403CAF10AE0FAD0EAC0DEC63
:1004C5001200A3E4FBFA795278431200061200E108
:1004D500E48F108E0FF50EF50D7FB87E0BFDFCAB8E
:1004E50010AA0FA90EA80DD31201894003D200222C
:0D04F500C20022E4F510F50FF50EF50D2202
:0C06C2001205468F0C8E0B8D0A8C09224D
:10060B00E4FDFCC3ED9FEC9E5015E4FBFA0BBB0025
:0F061B00010AEB647B4A70F50DBD00010C80E411
:01062A0022AD
:0306D800000022FD
:10054600D2901206D8C2917F007E007D007C00D238
:10055600AF2090FDC2AFE4FBD291780112019FC299
:100566009130900DEF2401FFE43EFEE43DFDE43CB6
:10057600FC0BBB18E3D291ED6480FD1206D8C29144
:010586002252
:05066200011800C101B8
:10066800759850C29CE4F587758921758DFD758B49
:08067800FDD28ED2AFC2AC220C
:1005BD008B158A168917AB15AA16A9171201626039
:1005CD00160517E5177002051614F9120162F59953
:0805DD003099FDC29980DF2274
:0A06CE00C2998F993099FDC299225C
:10062B00E4FDFCC3ED9FEC9E5015E4FBFA0BBB0005
:0F063B00010AEB647B4A70F50DBD00010C80E4F1
:01064A00228D
:10069800A907C2A57F017E0012062BD2A789801266
:0506A800062BC2A72291
:1006AD00A907D2A57F017E0012062B8980D2A71241
:0506BD00062BC2A7227C
:1005E5008B158A168917AB15AA16A917120162FF72
:1005F500D3940040101206AD74012517F517E435A4
:0606050016F51680E1224B
:10068000C2A7C2A67F381206987F0C1206987F0672
:080690001206987F0102069892
:10000300020157EC5D046005E85904700302014DD9
:10001300120118580460F6EC4860F2EC7004FDFE1F
:10002300FF22C860DB2481C85009C39860025006D0
:100033000201549850CAF582E9294B4A7005AB82F4
:1000430002014375F0007C1A7880C3EF9BEE9AEDB2
:1000530099400DC3EF9BFFEE9AFEED99FDE842F048
:10006300DC23ACF0D0E0FFD0E0FED0E0FDAB82209B
:10007300E7101BEB60BAEC2CFCEF33FFEE33FEED25
:1000830033FD02012FE803F830E705C0F075F000F7
:10009300EF2FFFEE33FEED33FD40B830E7C280AA09
:1000A30075F020800E75F010800575F0087D007ED8
:1000B300007F003392D530D50312017BEC3340101F
:1000C300EF33FFEE33FEED33FDEC33FCD5F0ED22E1
:0E00D300E5F0247EA2D513CC92E7CDCEFF221D
:1000E100EDD2E7CD33EC3392D524814006E4FFFE17
:1000F100FDFC22FCE4CFCECDCC24E0501174FF8076
:10010100EDC3CC13CCCD13CDCE13CECF13CF047012
:07011100F030D5DE02017B96
:10011800E9D2E7C933E833F892D5EDD2E7CD33EC2D
:0701280033FC5002B2D522A6
:10012F00EC30E7100FBF000C0EBE00080DBD000431
:10013F000BEB6014A2D5EB13FCED92E7FD2274FFDD
:10014F00FCFDFEFF22E480F8A2D574FF13FC7D8036
:03015F00E480EF4A
:030000000203F9FF
:0C03F900787FE4F6D8FD758120020440F6
:10016200BB010689828A83E0225002E722BBFE029B
:09017200E32289828A83E49322CE
:10050200C2D5E830E70FB2D5E4C39BFBE49AFAE424
:1005120099F9E498F8EC30E717B2D51205381201D0
:10052200EEE4C39BFBE49AFAE499F9E498F88003B9
:100532001201EE30D50DE4C39FFFE49EFEE49DFD63
:04054200E49CFC2217
:0E017B00C3E49FFFE49EFEE49DFDE49CFC2295
:10018900EB9FF5F0EA9E42F0E99D42F0EC6480C8ED
:0601990064809845F0228D
:10019F00E8600FEFC333FFEE33FEED33FDEC33FCBE
:0301AF00D8F12262
:10040500020280E493A3F8E493A34003F68001F28B
:1004150008DFF48029E493A3F85407240CC8C333F8
:10042500C4540F4420C8834004F456800146F6DFC7
:10043500E4800B010204081020408090064BE47E06
:10044500019360BCA3FF543F30E509541FFEE493BC
:10045500A360010ECF54C025E060A840B8E493A383
:10046500FAE493A3F8E493A3C8C582C8CAC583CAAE
:10047500F0A3C8C582C8CAC583CADFE9DEE780BE66
:010667000092
:1001B20075F008758200EF2FFFEE33FECD33CDCC04
:1001C20033CCC58233C5829BED9AEC99E582984087
:1001D2000CF582EE9BFEED9AFDEC99FC0FD5F0D664
:1001E200E4CEFBE4CDFAE4CCF9A88222B800C1B98E
:1001F2000059BA002DEC8BF084CFCECDFCE5F0CBCC
:10020200F97818EF2FFFEE33FEED33FDEC33FCEB04
:1002120033FB10D703994004EB99FB0FD8E5E4F9BF
:10022200FA227818EF2FFFEE33FEED33FDEC33FCAC
:10023200C933C910D7059BE99A4007EC9BFCE99AA0
:10024200F90FD8E0E4C9FAE4CCFB2275F010EF2FE5
:10025200FFEE33FEED33FDCC33CCC833C810D707E5
:100262009BEC9AE899400AED9BFDEC9AFCE899F820
:0E0272000FD5F0DAE4CDFBE4CCFAE4C8F922B3
:00000001FF
